{
  "contractName": "Ballot",
  "abi": [
    {
      "inputs": [
        {
          "internalType": "bytes32[]",
          "name": "proposalName",
          "type": "bytes32[]"
        }
      ],
      "stateMutability": "nonpayable",
      "type": "constructor"
    },
    {
      "inputs": [],
      "name": "chairman",
      "outputs": [
        {
          "internalType": "address",
          "name": "",
          "type": "address"
        }
      ],
      "stateMutability": "view",
      "type": "function",
      "constant": true
    },
    {
      "inputs": [
        {
          "internalType": "uint256",
          "name": "",
          "type": "uint256"
        }
      ],
      "name": "proposals",
      "outputs": [
        {
          "internalType": "bytes32",
          "name": "name",
          "type": "bytes32"
        },
        {
          "internalType": "uint256",
          "name": "voteCount",
          "type": "uint256"
        }
      ],
      "stateMutability": "view",
      "type": "function",
      "constant": true
    },
    {
      "inputs": [
        {
          "internalType": "address",
          "name": "",
          "type": "address"
        }
      ],
      "name": "voters",
      "outputs": [
        {
          "internalType": "uint256",
          "name": "weight",
          "type": "uint256"
        },
        {
          "internalType": "bool",
          "name": "voted",
          "type": "bool"
        },
        {
          "internalType": "uint256",
          "name": "vote",
          "type": "uint256"
        }
      ],
      "stateMutability": "view",
      "type": "function",
      "constant": true
    },
    {
      "inputs": [
        {
          "internalType": "address",
          "name": "voter",
          "type": "address"
        }
      ],
      "name": "giveRightToVoter",
      "outputs": [],
      "stateMutability": "nonpayable",
      "type": "function"
    },
    {
      "inputs": [
        {
          "internalType": "uint256",
          "name": "voteIndex",
          "type": "uint256"
        }
      ],
      "name": "vote",
      "outputs": [
        {
          "internalType": "uint256",
          "name": "_vote",
          "type": "uint256"
        },
        {
          "internalType": "bool",
          "name": "voted",
          "type": "bool"
        }
      ],
      "stateMutability": "nonpayable",
      "type": "function"
    },
    {
      "inputs": [],
      "name": "winningPoropsal",
      "outputs": [
        {
          "internalType": "uint256",
          "name": "nameIndex",
          "type": "uint256"
        }
      ],
      "stateMutability": "view",
      "type": "function",
      "constant": true
    },
    {
      "inputs": [],
      "name": "winnerName",
      "outputs": [
        {
          "internalType": "bytes32",
          "name": "name",
          "type": "bytes32"
        }
      ],
      "stateMutability": "view",
      "type": "function",
      "constant": true
    }
  ],
  "bytecode": "0x60806040523480156200001157600080fd5b5060405162000f5e38038062000f5e833981810160405281019062000037919062000342565b336000806101000a81548173ffffffffffffffffffffffffffffffffffffffff021916908373ffffffffffffffffffffffffffffffffffffffff16021790555060018060008060009054906101000a900473ffffffffffffffffffffffffffffffffffffffff1673ffffffffffffffffffffffffffffffffffffffff1673ffffffffffffffffffffffffffffffffffffffff1681526020019081526020016000206000018190555060005b81518110156200017657600260405180604001604052808484815181106200010f576200010e62000393565b5b60200260200101518152602001600081525090806001815401808255809150506001900390600052602060002090600202016000909190919091506000820151816000015560208201518160010155505080806200016d90620003fb565b915050620000e2565b505062000448565b6000604051905090565b600080fd5b600080fd5b600080fd5b6000601f19601f8301169050919050565b7f4e487b7100000000000000000000000000000000000000000000000000000000600052604160045260246000fd5b620001e28262000197565b810181811067ffffffffffffffff82111715620002045762000203620001a8565b5b80604052505050565b6000620002196200017e565b9050620002278282620001d7565b919050565b600067ffffffffffffffff8211156200024a5762000249620001a8565b5b602082029050602081019050919050565b600080fd5b6000819050919050565b620002758162000260565b81146200028157600080fd5b50565b60008151905062000295816200026a565b92915050565b6000620002b2620002ac846200022c565b6200020d565b90508083825260208201905060208402830185811115620002d857620002d76200025b565b5b835b81811015620003055780620002f0888262000284565b845260208401935050602081019050620002da565b5050509392505050565b600082601f83011262000327576200032662000192565b5b8151620003398482602086016200029b565b91505092915050565b6000602082840312156200035b576200035a62000188565b5b600082015167ffffffffffffffff8111156200037c576200037b6200018d565b5b6200038a848285016200030f565b91505092915050565b7f4e487b7100000000000000000000000000000000000000000000000000000000600052603260045260246000fd5b7f4e487b7100000000000000000000000000000000000000000000000000000000600052601160045260246000fd5b6000819050919050565b60006200040882620003f1565b91507fffffffffffffffffffffffffffffffffffffffffffffffffffffffffffffffff82036200043d576200043c620003c2565b5b600182019050919050565b610b0680620004586000396000f3fe608060405234801561001057600080fd5b506004361061007d5760003560e01c806387f7b9751161005b57806387f7b97514610100578063a3ec138d1461011e578063c2819ad414610150578063e2ba53f01461016e5761007d565b80630121b93f14610082578063013cf08b146100b35780631eea2fb9146100e4575b600080fd5b61009c6004803603810190610097919061062f565b61018c565b6040516100aa929190610686565b60405180910390f35b6100cd60048036038101906100c8919061062f565b6102f2565b6040516100db9291906106c8565b60405180910390f35b6100fe60048036038101906100f9919061074f565b610326565b005b6101086104dd565b604051610115919061078b565b60405180910390f35b6101386004803603810190610133919061074f565b610501565b604051610147939291906107a6565b60405180910390f35b610158610538565b60405161016591906107dd565b60405180910390f35b6101766105c0565b60405161018391906107f8565b60405180910390f35b6000806000600160003373ffffffffffffffffffffffffffffffffffffffff1673ffffffffffffffffffffffffffffffffffffffff16815260200190815260200160002090506000816000015403610219576040517f08c379a000000000000000000000000000000000000000000000000000000000815260040161021090610870565b60405180910390fd5b8060010160009054906101000a900460ff161561026b576040517f08c379a0000000000000000000000000000000000000000000000000000000008152600401610262906108dc565b60405180910390fd5b60018160010160006101000a81548160ff0219169083151502179055508381600201819055508060000154600285815481106102aa576102a96108fc565b5b906000526020600020906002020160010160008282546102ca919061095a565b9250508190555080600201548160010160009054906101000a900460ff169250925050915091565b6002818154811061030257600080fd5b90600052602060002090600202016000915090508060000154908060010154905082565b60008054906101000a900473ffffffffffffffffffffffffffffffffffffffff1673ffffffffffffffffffffffffffffffffffffffff163373ffffffffffffffffffffffffffffffffffffffff16146103b4576040517f08c379a00000000000000000000000000000000000000000000000000000000081526004016103ab906109fc565b60405180910390fd5b600160008273ffffffffffffffffffffffffffffffffffffffff1673ffffffffffffffffffffffffffffffffffffffff16815260200190815260200160002060010160009054906101000a900460ff1615610444576040517f08c379a000000000000000000000000000000000000000000000000000000000815260040161043b90610a68565b60405180910390fd5b6000600160008373ffffffffffffffffffffffffffffffffffffffff1673ffffffffffffffffffffffffffffffffffffffff168152602001908152602001600020600001541461049357600080fd5b60018060008373ffffffffffffffffffffffffffffffffffffffff1673ffffffffffffffffffffffffffffffffffffffff1681526020019081526020016000206000018190555050565b60008054906101000a900473ffffffffffffffffffffffffffffffffffffffff1681565b60016020528060005260406000206000915090508060000154908060010160009054906101000a900460ff16908060020154905083565b6000806000905060005b6002805490508110156105bb578160028281548110610564576105636108fc565b5b90600052602060002090600202016001015411156105a857600281815481106105905761058f6108fc565b5b90600052602060002090600202016001015491508092505b80806105b390610a88565b915050610542565b505090565b600060026105cc610538565b815481106105dd576105dc6108fc565b5b906000526020600020906002020160000154905090565b600080fd5b6000819050919050565b61060c816105f9565b811461061757600080fd5b50565b60008135905061062981610603565b92915050565b600060208284031215610645576106446105f4565b5b60006106538482850161061a565b91505092915050565b610665816105f9565b82525050565b60008115159050919050565b6106808161066b565b82525050565b600060408201905061069b600083018561065c565b6106a86020830184610677565b9392505050565b6000819050919050565b6106c2816106af565b82525050565b60006040820190506106dd60008301856106b9565b6106ea602083018461065c565b9392505050565b600073ffffffffffffffffffffffffffffffffffffffff82169050919050565b600061071c826106f1565b9050919050565b61072c81610711565b811461073757600080fd5b50565b60008135905061074981610723565b92915050565b600060208284031215610765576107646105f4565b5b60006107738482850161073a565b91505092915050565b61078581610711565b82525050565b60006020820190506107a0600083018461077c565b92915050565b60006060820190506107bb600083018661065c565b6107c86020830185610677565b6107d5604083018461065c565b949350505050565b60006020820190506107f2600083018461065c565b92915050565b600060208201905061080d60008301846106b9565b92915050565b600082825260208201905092915050565b7f486173206e6f20726967687420746f20766f74652e0000000000000000000000600082015250565b600061085a601583610813565b915061086582610824565b602082019050919050565b600060208201905081810360008301526108898161084d565b9050919050565b7f416c726561647920566f74656400000000000000000000000000000000000000600082015250565b60006108c6600d83610813565b91506108d182610890565b602082019050919050565b600060208201905081810360008301526108f5816108b9565b9050919050565b7f4e487b7100000000000000000000000000000000000000000000000000000000600052603260045260246000fd5b7f4e487b7100000000000000000000000000000000000000000000000000000000600052601160045260246000fd5b6000610965826105f9565b9150610970836105f9565b9250827fffffffffffffffffffffffffffffffffffffffffffffffffffffffffffffffff038211156109a5576109a461092b565b5b828201905092915050565b7f43616c6c6572206973206e6f742076616c696400000000000000000000000000600082015250565b60006109e6601383610813565b91506109f1826109b0565b602082019050919050565b60006020820190508181036000830152610a15816109d9565b9050919050565b7f54686520766f74657220616c726561647920766f746564000000000000000000600082015250565b6000610a52601783610813565b9150610a5d82610a1c565b602082019050919050565b60006020820190508181036000830152610a8181610a45565b9050919050565b6000610a93826105f9565b91507fffffffffffffffffffffffffffffffffffffffffffffffffffffffffffffffff8203610ac557610ac461092b565b5b60018201905091905056fea2646970667358221220d3de096a68877930e60586553caefec07edcf17332b3ab64169b1d1273d570fd64736f6c634300080d0033",
  "immutableReferences": {},
  "source": "// SPDX-License-Identifier: MIT\npragma solidity >=0.4.25 <0.9.0;\n\ncontract Ballot {\n    struct Voter {\n        uint256 weight;\n        bool voted;\n        uint256 vote;\n    }\n    struct Proposal {\n        bytes32 name;\n        uint256 voteCount;\n    }\n\n    address public chairman;\n\n    mapping(address => Voter) public voters;\n\n    Proposal[] public proposals;\n\n    constructor(bytes32[] memory proposalName) {\n        chairman = msg.sender;\n        voters[chairman].weight = 1;\n        for (uint256 i = 0; i < proposalName.length; i++) {\n            proposals.push(Proposal({name: proposalName[i], voteCount: 0}));\n        }\n    }\n\n    function giveRightToVoter(address voter) public {\n        require(msg.sender == chairman, \"Caller is not valid\");\n        require(!voters[voter].voted, \"The voter already voted\");\n        require(voters[voter].weight == 0);\n        voters[voter].weight = 1;\n    }\n\n    function vote(uint256 voteIndex)\n        public\n        returns (uint256 _vote, bool voted)\n    {\n        Voter storage sender = voters[msg.sender];\n        require(sender.weight != 0, \"Has no right to vote.\");\n        require(!sender.voted, \"Already Voted\");\n        sender.voted = true;\n        sender.vote = voteIndex;\n        proposals[voteIndex].voteCount += sender.weight;\n        return (sender.vote, sender.voted);\n    }\n\n    function winningPoropsal() public view returns (uint256 nameIndex) {\n        uint256 winningVoteCount = 0;\n        for (uint256 p = 0; p < proposals.length; p++) {\n            if (proposals[p].voteCount > winningVoteCount) {\n                winningVoteCount = proposals[p].voteCount;\n                nameIndex = p;\n            }\n        }\n    }\n\n    function winnerName() public view returns (bytes32 name) {\n        name = proposals[winningPoropsal()].name;\n    }\n}\n",
  "sourcePath": "/Users/hasnentai/Documents/Voting Contracts/contracts/Ballot.sol",
  "compiler": {
    "name": "solc",
    "version": "0.8.13+commit.abaa5c0e.Emscripten.clang"
  },
  "schemaVersion": "3.4.11",
  "updatedAt": "2023-02-20T16:51:46.790Z",
  "networkType": "ethereum",
  "devdoc": {
    "kind": "dev",
    "methods": {},
    "version": 1
  },
  "userdoc": {
    "kind": "user",
    "methods": {},
    "version": 1
  }
}